{
  "_format": "hh-sol-artifact-1",
  "contractName": "Crowdfunding",
  "sourceName": "contracts/Crowdfunding.sol",
  "abi": [
    {
      "anonymous": false,
      "inputs": [
        {
          "indexed": true,
          "internalType": "uint256",
          "name": "id",
          "type": "uint256"
        },
        {
          "indexed": true,
          "internalType": "address",
          "name": "creator",
          "type": "address"
        },
        {
          "indexed": false,
          "internalType": "string",
          "name": "title",
          "type": "string"
        },
        {
          "indexed": false,
          "internalType": "uint256",
          "name": "goal",
          "type": "uint256"
        },
        {
          "indexed": false,
          "internalType": "uint256",
          "name": "deadline",
          "type": "uint256"
        }
      ],
      "name": "CampaignCreated",
      "type": "event"
    },
    {
      "anonymous": false,
      "inputs": [
        {
          "indexed": true,
          "internalType": "uint256",
          "name": "id",
          "type": "uint256"
        },
        {
          "indexed": true,
          "internalType": "address",
          "name": "contributor",
          "type": "address"
        },
        {
          "indexed": false,
          "internalType": "uint256",
          "name": "amount",
          "type": "uint256"
        },
        {
          "indexed": false,
          "internalType": "uint256",
          "name": "newTotal",
          "type": "uint256"
        }
      ],
      "name": "ContributionReceived",
      "type": "event"
    },
    {
      "anonymous": false,
      "inputs": [
        {
          "indexed": true,
          "internalType": "uint256",
          "name": "id",
          "type": "uint256"
        },
        {
          "indexed": true,
          "internalType": "address",
          "name": "creator",
          "type": "address"
        },
        {
          "indexed": false,
          "internalType": "uint256",
          "name": "amount",
          "type": "uint256"
        }
      ],
      "name": "FundsWithdrawn",
      "type": "event"
    },
    {
      "anonymous": false,
      "inputs": [
        {
          "indexed": true,
          "internalType": "uint256",
          "name": "id",
          "type": "uint256"
        },
        {
          "indexed": true,
          "internalType": "address",
          "name": "contributor",
          "type": "address"
        },
        {
          "indexed": false,
          "internalType": "uint256",
          "name": "amount",
          "type": "uint256"
        }
      ],
      "name": "RefundClaimed",
      "type": "event"
    },
    {
      "inputs": [
        {
          "internalType": "uint256",
          "name": "id",
          "type": "uint256"
        }
      ],
      "name": "contribute",
      "outputs": [],
      "stateMutability": "payable",
      "type": "function"
    },
    {
      "inputs": [
        {
          "internalType": "string",
          "name": "title",
          "type": "string"
        },
        {
          "internalType": "uint256",
          "name": "goal",
          "type": "uint256"
        },
        {
          "internalType": "uint256",
          "name": "deadline",
          "type": "uint256"
        },
        {
          "internalType": "string",
          "name": "description",
          "type": "string"
        }
      ],
      "name": "createCampaign",
      "outputs": [
        {
          "internalType": "uint256",
          "name": "",
          "type": "uint256"
        }
      ],
      "stateMutability": "nonpayable",
      "type": "function"
    },
    {
      "inputs": [
        {
          "internalType": "uint256",
          "name": "id",
          "type": "uint256"
        }
      ],
      "name": "getCampaign",
      "outputs": [
        {
          "components": [
            {
              "internalType": "uint256",
              "name": "id",
              "type": "uint256"
            },
            {
              "internalType": "string",
              "name": "title",
              "type": "string"
            },
            {
              "internalType": "string",
              "name": "description",
              "type": "string"
            },
            {
              "internalType": "address",
              "name": "creator",
              "type": "address"
            },
            {
              "internalType": "uint256",
              "name": "goal",
              "type": "uint256"
            },
            {
              "internalType": "uint256",
              "name": "deadline",
              "type": "uint256"
            },
            {
              "internalType": "uint256",
              "name": "totalRaised",
              "type": "uint256"
            },
            {
              "internalType": "bool",
              "name": "withdrawn",
              "type": "bool"
            },
            {
              "internalType": "uint256",
              "name": "contributorCount",
              "type": "uint256"
            }
          ],
          "internalType": "struct Crowdfunding.CampaignView",
          "name": "",
          "type": "tuple"
        }
      ],
      "stateMutability": "view",
      "type": "function"
    },
    {
      "inputs": [],
      "name": "getCampaignCount",
      "outputs": [
        {
          "internalType": "uint256",
          "name": "",
          "type": "uint256"
        }
      ],
      "stateMutability": "view",
      "type": "function"
    },
    {
      "inputs": [],
      "name": "getCampaigns",
      "outputs": [
        {
          "components": [
            {
              "internalType": "uint256",
              "name": "id",
              "type": "uint256"
            },
            {
              "internalType": "string",
              "name": "title",
              "type": "string"
            },
            {
              "internalType": "string",
              "name": "description",
              "type": "string"
            },
            {
              "internalType": "address",
              "name": "creator",
              "type": "address"
            },
            {
              "internalType": "uint256",
              "name": "goal",
              "type": "uint256"
            },
            {
              "internalType": "uint256",
              "name": "deadline",
              "type": "uint256"
            },
            {
              "internalType": "uint256",
              "name": "totalRaised",
              "type": "uint256"
            },
            {
              "internalType": "bool",
              "name": "withdrawn",
              "type": "bool"
            },
            {
              "internalType": "uint256",
              "name": "contributorCount",
              "type": "uint256"
            }
          ],
          "internalType": "struct Crowdfunding.CampaignView[]",
          "name": "list",
          "type": "tuple[]"
        }
      ],
      "stateMutability": "view",
      "type": "function"
    },
    {
      "inputs": [
        {
          "internalType": "uint256",
          "name": "id",
          "type": "uint256"
        },
        {
          "internalType": "address",
          "name": "user",
          "type": "address"
        }
      ],
      "name": "getContributionOf",
      "outputs": [
        {
          "internalType": "uint256",
          "name": "",
          "type": "uint256"
        }
      ],
      "stateMutability": "view",
      "type": "function"
    },
    {
      "inputs": [
        {
          "internalType": "uint256",
          "name": "id",
          "type": "uint256"
        },
        {
          "internalType": "uint256",
          "name": "index",
          "type": "uint256"
        }
      ],
      "name": "getContributorAt",
      "outputs": [
        {
          "internalType": "address",
          "name": "contributor",
          "type": "address"
        },
        {
          "internalType": "uint256",
          "name": "amount",
          "type": "uint256"
        }
      ],
      "stateMutability": "view",
      "type": "function"
    },
    {
      "inputs": [
        {
          "internalType": "uint256",
          "name": "id",
          "type": "uint256"
        }
      ],
      "name": "refundContributors",
      "outputs": [],
      "stateMutability": "nonpayable",
      "type": "function"
    },
    {
      "inputs": [
        {
          "internalType": "uint256",
          "name": "id",
          "type": "uint256"
        }
      ],
      "name": "withdrawFunds",
      "outputs": [],
      "stateMutability": "nonpayable",
      "type": "function"
    }
  ],
  "bytecode": "0x608060405234801561001057600080fd5b50612781806100206000396000f3fe6080604052600436106100865760003560e01c80636caa9218116100595780636caa92181461016b578063a6b0363314610196578063c1cbbca7146101c1578063f44ceee7146101dd578063f44f70451461020657610086565b806307ce53551461008b578063155dd5ee146100c857806322f09b64146100f15780635598f8cc1461012e575b600080fd5b34801561009757600080fd5b506100b260048036038101906100ad9190611646565b610244565b6040516100bf91906116f4565b60405180910390f35b3480156100d457600080fd5b506100ef60048036038101906100ea919061170f565b610467565b005b3480156100fd57600080fd5b506101186004803603810190610113919061179a565b610771565b60405161012591906116f4565b60405180910390f35b34801561013a57600080fd5b506101556004803603810190610150919061170f565b610824565b604051610162919061195e565b60405180910390f35b34801561017757600080fd5b50610180610a58565b60405161018d91906116f4565b60405180910390f35b3480156101a257600080fd5b506101ab610a64565b6040516101b89190611b0e565b60405180910390f35b6101db60048036038101906101d6919061170f565b610ce4565b005b3480156101e957600080fd5b5061020460048036038101906101ff919061170f565b610f54565b005b34801561021257600080fd5b5061022d60048036038101906102289190611b30565b61130b565b60405161023b929190611b7f565b60405180910390f35b600080855111610289576040517f08c379a000000000000000000000000000000000000000000000000000000000815260040161028090611c05565b60405180910390fd5b600084116102cc576040517f08c379a00000000000000000000000000000000000000000000000000000000081526004016102c390611c71565b60405180910390fd5b42831161030e576040517f08c379a000000000000000000000000000000000000000000000000000000000815260040161030590611cdd565b60405180910390fd5b600060018160018154018082558091505003906000526020600020905050600060016000805490506103409190611d2c565b9050600080828154811061035757610356611d60565b5b90600052602060002090600a02019050868160000190816103789190611f9b565b508381600101908161038a9190611f9b565b50338160020160006101000a81548173ffffffffffffffffffffffffffffffffffffffff021916908373ffffffffffffffffffffffffffffffffffffffff1602179055508581600301819055508481600401819055506000816005018190555060008160060160006101000a81548160ff0219169083151502179055503373ffffffffffffffffffffffffffffffffffffffff16827fdc26653af5b99b2da33e2ad69ee6600d9aeccc82b034501db4338309615ca238898989604051610452939291906120a6565b60405180910390a38192505050949350505050565b60008054905081106104ae576040517f08c379a00000000000000000000000000000000000000000000000000000000081526004016104a590612130565b60405180910390fd5b60008082815481106104c3576104c2611d60565b5b90600052602060002090600a020190508060020160009054906101000a900473ffffffffffffffffffffffffffffffffffffffff1673ffffffffffffffffffffffffffffffffffffffff163373ffffffffffffffffffffffffffffffffffffffff1614610565576040517f08c379a000000000000000000000000000000000000000000000000000000000815260040161055c9061219c565b60405180910390fd5b8060060160009054906101000a900460ff16156105b7576040517f08c379a00000000000000000000000000000000000000000000000000000000081526004016105ae90612208565b60405180910390fd5b806003015481600501541015610602576040517f08c379a00000000000000000000000000000000000000000000000000000000081526004016105f990612274565b60405180910390fd5b60018160060160006101000a81548160ff02191690831515021790555060008160050154905060008260020160009054906101000a900473ffffffffffffffffffffffffffffffffffffffff1673ffffffffffffffffffffffffffffffffffffffff1682604051610672906122c5565b60006040518083038185875af1925050503d80600081146106af576040519150601f19603f3d011682016040523d82523d6000602084013e6106b4565b606091505b50509050806106f8576040517f08c379a00000000000000000000000000000000000000000000000000000000081526004016106ef90612326565b60405180910390fd5b8260020160009054906101000a900473ffffffffffffffffffffffffffffffffffffffff1673ffffffffffffffffffffffffffffffffffffffff16847ff440aec6b52895984d061d622e6edeba6210f7c3e059be920663140c084560d78460405161076391906116f4565b60405180910390a350505050565b6000808054905083106107b9576040517f08c379a00000000000000000000000000000000000000000000000000000000081526004016107b090612130565b60405180910390fd5b600083815481106107cd576107cc611d60565b5b90600052602060002090600a020160070160008373ffffffffffffffffffffffffffffffffffffffff1673ffffffffffffffffffffffffffffffffffffffff16815260200190815260200160002054905092915050565b61082c611452565b6000805490508210610873576040517f08c379a000000000000000000000000000000000000000000000000000000000815260040161086a90612130565b60405180910390fd5b600080838154811061088857610887611d60565b5b90600052602060002090600a020190506040518061012001604052808481526020018260000180546108b990611dbe565b80601f01602080910402602001604051908101604052809291908181526020018280546108e590611dbe565b80156109325780601f1061090757610100808354040283529160200191610932565b820191906000526020600020905b81548152906001019060200180831161091557829003601f168201915b5050505050815260200182600101805461094b90611dbe565b80601f016020809104026020016040519081016040528092919081815260200182805461097790611dbe565b80156109c45780601f10610999576101008083540402835291602001916109c4565b820191906000526020600020905b8154815290600101906020018083116109a757829003601f168201915b505050505081526020018260020160009054906101000a900473ffffffffffffffffffffffffffffffffffffffff1673ffffffffffffffffffffffffffffffffffffffff1681526020018260030154815260200182600401548152602001826005015481526020018260060160009054906101000a900460ff16151581526020018260080180549050815250915050919050565b60008080549050905090565b60606000808054905090508067ffffffffffffffff811115610a8957610a886114e5565b5b604051908082528060200260200182016040528015610ac257816020015b610aaf611452565b815260200190600190039081610aa75790505b50915060005b81811015610cdf576000808281548110610ae557610ae4611d60565b5b90600052602060002090600a02019050604051806101200160405280838152602001826000018054610b1690611dbe565b80601f0160208091040260200160405190810160405280929190818152602001828054610b4290611dbe565b8015610b8f5780601f10610b6457610100808354040283529160200191610b8f565b820191906000526020600020905b815481529060010190602001808311610b7257829003601f168201915b50505050508152602001826001018054610ba890611dbe565b80601f0160208091040260200160405190810160405280929190818152602001828054610bd490611dbe565b8015610c215780601f10610bf657610100808354040283529160200191610c21565b820191906000526020600020905b815481529060010190602001808311610c0457829003601f168201915b505050505081526020018260020160009054906101000a900473ffffffffffffffffffffffffffffffffffffffff1673ffffffffffffffffffffffffffffffffffffffff1681526020018260030154815260200182600401548152602001826005015481526020018260060160009054906101000a900460ff16151581526020018260080180549050815250848381518110610cc057610cbf611d60565b5b6020026020010181905250508080610cd790612346565b915050610ac8565b505090565b6000805490508110610d2b576040517f08c379a0000000000000000000000000000000000000000000000000000000008152600401610d2290612130565b60405180910390fd5b6000808281548110610d4057610d3f611d60565b5b90600052602060002090600a0201905080600401544210610d96576040517f08c379a0000000000000000000000000000000000000000000000000000000008152600401610d8d906123da565b60405180910390fd5b60003411610dd9576040517f08c379a0000000000000000000000000000000000000000000000000000000008152600401610dd090612446565b60405180910390fd5b60008160070160003373ffffffffffffffffffffffffffffffffffffffff1673ffffffffffffffffffffffffffffffffffffffff1681526020019081526020016000205403610e885780600801339080600181540180825580915050600190039060005260206000200160009091909190916101000a81548173ffffffffffffffffffffffffffffffffffffffff021916908373ffffffffffffffffffffffffffffffffffffffff1602179055505b348160070160003373ffffffffffffffffffffffffffffffffffffffff1673ffffffffffffffffffffffffffffffffffffffff1681526020019081526020016000206000828254610ed99190612466565b9250508190555034816005016000828254610ef49190612466565b925050819055503373ffffffffffffffffffffffffffffffffffffffff16827fd2d33c5340520954ae03d46ba5f056dd7adb35260f86df538a709bed96d89afb348460050154604051610f4892919061249a565b60405180910390a35050565b6000805490508110610f9b576040517f08c379a0000000000000000000000000000000000000000000000000000000008152600401610f9290612130565b60405180910390fd5b6000808281548110610fb057610faf611d60565b5b90600052602060002090600a020190508060040154421015611007576040517f08c379a0000000000000000000000000000000000000000000000000000000008152600401610ffe9061250f565b60405180910390fd5b8060030154816005015410611051576040517f08c379a00000000000000000000000000000000000000000000000000000000081526004016110489061257b565b60405180910390fd5b8060090160003373ffffffffffffffffffffffffffffffffffffffff1673ffffffffffffffffffffffffffffffffffffffff16815260200190815260200160002060009054906101000a900460ff16156110e0576040517f08c379a00000000000000000000000000000000000000000000000000000000081526004016110d7906125e7565b60405180910390fd5b60008160070160003373ffffffffffffffffffffffffffffffffffffffff1673ffffffffffffffffffffffffffffffffffffffff16815260200190815260200160002054905060008111611169576040517f08c379a000000000000000000000000000000000000000000000000000000000815260040161116090612653565b60405180910390fd5b60018260090160003373ffffffffffffffffffffffffffffffffffffffff1673ffffffffffffffffffffffffffffffffffffffff16815260200190815260200160002060006101000a81548160ff02191690831515021790555060008260070160003373ffffffffffffffffffffffffffffffffffffffff1673ffffffffffffffffffffffffffffffffffffffff1681526020019081526020016000208190555060003373ffffffffffffffffffffffffffffffffffffffff1682604051611230906122c5565b60006040518083038185875af1925050503d806000811461126d576040519150601f19603f3d011682016040523d82523d6000602084013e611272565b606091505b50509050806112b6576040517f08c379a00000000000000000000000000000000000000000000000000000000081526004016112ad906126bf565b60405180910390fd5b3373ffffffffffffffffffffffffffffffffffffffff16847ff3f402280ef0a7905e124aa621b65eaeb2725c343e8b36d398ed78c29daf285c846040516112fd91906116f4565b60405180910390a350505050565b6000806000805490508410611355576040517f08c379a000000000000000000000000000000000000000000000000000000000815260040161134c90612130565b60405180910390fd5b600080858154811061136a57611369611d60565b5b90600052602060002090600a02019050806008018054905084106113c3576040517f08c379a00000000000000000000000000000000000000000000000000000000081526004016113ba9061272b565b60405180910390fd5b8060080184815481106113d9576113d8611d60565b5b9060005260206000200160009054906101000a900473ffffffffffffffffffffffffffffffffffffffff1692508060070160008473ffffffffffffffffffffffffffffffffffffffff1673ffffffffffffffffffffffffffffffffffffffff168152602001908152602001600020549150509250929050565b604051806101200160405280600081526020016060815260200160608152602001600073ffffffffffffffffffffffffffffffffffffffff168152602001600081526020016000815260200160008152602001600015158152602001600081525090565b6000604051905090565b600080fd5b600080fd5b600080fd5b600080fd5b6000601f19601f8301169050919050565b7f4e487b7100000000000000000000000000000000000000000000000000000000600052604160045260246000fd5b61151d826114d4565b810181811067ffffffffffffffff8211171561153c5761153b6114e5565b5b80604052505050565b600061154f6114b6565b905061155b8282611514565b919050565b600067ffffffffffffffff82111561157b5761157a6114e5565b5b611584826114d4565b9050602081019050919050565b82818337600083830152505050565b60006115b36115ae84611560565b611545565b9050828152602081018484840111156115cf576115ce6114cf565b5b6115da848285611591565b509392505050565b600082601f8301126115f7576115f66114ca565b5b81356116078482602086016115a0565b91505092915050565b6000819050919050565b61162381611610565b811461162e57600080fd5b50565b6000813590506116408161161a565b92915050565b600080600080608085870312156116605761165f6114c0565b5b600085013567ffffffffffffffff81111561167e5761167d6114c5565b5b61168a878288016115e2565b945050602061169b87828801611631565b93505060406116ac87828801611631565b925050606085013567ffffffffffffffff8111156116cd576116cc6114c5565b5b6116d9878288016115e2565b91505092959194509250565b6116ee81611610565b82525050565b600060208201905061170960008301846116e5565b92915050565b600060208284031215611725576117246114c0565b5b600061173384828501611631565b91505092915050565b600073ffffffffffffffffffffffffffffffffffffffff82169050919050565b60006117678261173c565b9050919050565b6117778161175c565b811461178257600080fd5b50565b6000813590506117948161176e565b92915050565b600080604083850312156117b1576117b06114c0565b5b60006117bf85828601611631565b92505060206117d085828601611785565b9150509250929050565b6117e381611610565b82525050565b600081519050919050565b600082825260208201905092915050565b60005b83811015611823578082015181840152602081019050611808565b60008484015250505050565b600061183a826117e9565b61184481856117f4565b9350611854818560208601611805565b61185d816114d4565b840191505092915050565b6118718161175c565b82525050565b60008115159050919050565b61188c81611877565b82525050565b6000610120830160008301516118ab60008601826117da565b50602083015184820360208601526118c3828261182f565b915050604083015184820360408601526118dd828261182f565b91505060608301516118f26060860182611868565b50608083015161190560808601826117da565b5060a083015161191860a08601826117da565b5060c083015161192b60c08601826117da565b5060e083015161193e60e0860182611883565b506101008301516119536101008601826117da565b508091505092915050565b600060208201905081810360008301526119788184611892565b905092915050565b600081519050919050565b600082825260208201905092915050565b6000819050602082019050919050565b6000610120830160008301516119c560008601826117da565b50602083015184820360208601526119dd828261182f565b915050604083015184820360408601526119f7828261182f565b9150506060830151611a0c6060860182611868565b506080830151611a1f60808601826117da565b5060a0830151611a3260a08601826117da565b5060c0830151611a4560c08601826117da565b5060e0830151611a5860e0860182611883565b50610100830151611a6d6101008601826117da565b508091505092915050565b6000611a8483836119ac565b905092915050565b6000602082019050919050565b6000611aa482611980565b611aae818561198b565b935083602082028501611ac08561199c565b8060005b85811015611afc5784840389528151611add8582611a78565b9450611ae883611a8c565b925060208a01995050600181019050611ac4565b50829750879550505050505092915050565b60006020820190508181036000830152611b288184611a99565b905092915050565b60008060408385031215611b4757611b466114c0565b5b6000611b5585828601611631565b9250506020611b6685828601611631565b9150509250929050565b611b798161175c565b82525050565b6000604082019050611b946000830185611b70565b611ba160208301846116e5565b9392505050565b600082825260208201905092915050565b7f5469746c65207265717569726564000000000000000000000000000000000000600082015250565b6000611bef600e83611ba8565b9150611bfa82611bb9565b602082019050919050565b60006020820190508181036000830152611c1e81611be2565b9050919050565b7f476f616c206d757374206265203e203000000000000000000000000000000000600082015250565b6000611c5b601083611ba8565b9150611c6682611c25565b602082019050919050565b60006020820190508181036000830152611c8a81611c4e565b9050919050565b7f446561646c696e65206d75737420626520696e20667574757265000000000000600082015250565b6000611cc7601a83611ba8565b9150611cd282611c91565b602082019050919050565b60006020820190508181036000830152611cf681611cba565b9050919050565b7f4e487b7100000000000000000000000000000000000000000000000000000000600052601160045260246000fd5b6000611d3782611610565b9150611d4283611610565b9250828203905081811115611d5a57611d59611cfd565b5b92915050565b7f4e487b7100000000000000000000000000000000000000000000000000000000600052603260045260246000fd5b7f4e487b7100000000000000000000000000000000000000000000000000000000600052602260045260246000fd5b60006002820490506001821680611dd657607f821691505b602082108103611de957611de8611d8f565b5b50919050565b60008190508160005260206000209050919050565b60006020601f8301049050919050565b600082821b905092915050565b600060088302611e517fffffffffffffffffffffffffffffffffffffffffffffffffffffffffffffffff82611e14565b611e5b8683611e14565b95508019841693508086168417925050509392505050565b6000819050919050565b6000611e98611e93611e8e84611610565b611e73565b611610565b9050919050565b6000819050919050565b611eb283611e7d565b611ec6611ebe82611e9f565b848454611e21565b825550505050565b600090565b611edb611ece565b611ee6818484611ea9565b505050565b5b81811015611f0a57611eff600082611ed3565b600181019050611eec565b5050565b601f821115611f4f57611f2081611def565b611f2984611e04565b81016020851015611f38578190505b611f4c611f4485611e04565b830182611eeb565b50505b505050565b600082821c905092915050565b6000611f7260001984600802611f54565b1980831691505092915050565b6000611f8b8383611f61565b9150826002028217905092915050565b611fa4826117e9565b67ffffffffffffffff811115611fbd57611fbc6114e5565b5b611fc78254611dbe565b611fd2828285611f0e565b600060209050601f8311600181146120055760008415611ff3578287015190505b611ffd8582611f7f565b865550612065565b601f19841661201386611def565b60005b8281101561203b57848901518255600182019150602085019450602081019050612016565b868310156120585784890151612054601f891682611f61565b8355505b6001600288020188555050505b505050505050565b6000612078826117e9565b6120828185611ba8565b9350612092818560208601611805565b61209b816114d4565b840191505092915050565b600060608201905081810360008301526120c0818661206d565b90506120cf60208301856116e5565b6120dc60408301846116e5565b949350505050565b7f496e76616c696420696400000000000000000000000000000000000000000000600082015250565b600061211a600a83611ba8565b9150612125826120e4565b602082019050919050565b600060208201905081810360008301526121498161210d565b9050919050565b7f4f6e6c792063726561746f720000000000000000000000000000000000000000600082015250565b6000612186600c83611ba8565b915061219182612150565b602082019050919050565b600060208201905081810360008301526121b581612179565b9050919050565b7f416c72656164792077697468647261776e000000000000000000000000000000600082015250565b60006121f2601183611ba8565b91506121fd826121bc565b602082019050919050565b60006020820190508181036000830152612221816121e5565b9050919050565b7f476f616c206e6f74207265616368656400000000000000000000000000000000600082015250565b600061225e601083611ba8565b915061226982612228565b602082019050919050565b6000602082019050818103600083015261228d81612251565b9050919050565b600081905092915050565b50565b60006122af600083612294565b91506122ba8261229f565b600082019050919050565b60006122d0826122a2565b9150819050919050565b7f5472616e73666572206661696c65640000000000000000000000000000000000600082015250565b6000612310600f83611ba8565b915061231b826122da565b602082019050919050565b6000602082019050818103600083015261233f81612303565b9050919050565b600061235182611610565b91507fffffffffffffffffffffffffffffffffffffffffffffffffffffffffffffffff820361238357612382611cfd565b5b600182019050919050565b7f43616d706169676e20656e646564000000000000000000000000000000000000600082015250565b60006123c4600e83611ba8565b91506123cf8261238e565b602082019050919050565b600060208201905081810360008301526123f3816123b7565b9050919050565b7f4d7573742073656e642065746865720000000000000000000000000000000000600082015250565b6000612430600f83611ba8565b915061243b826123fa565b602082019050919050565b6000602082019050818103600083015261245f81612423565b9050919050565b600061247182611610565b915061247c83611610565b925082820190508082111561249457612493611cfd565b5b92915050565b60006040820190506124af60008301856116e5565b6124bc60208301846116e5565b9392505050565b7f4e6f7420656e6465640000000000000000000000000000000000000000000000600082015250565b60006124f9600983611ba8565b9150612504826124c3565b602082019050919050565b60006020820190508181036000830152612528816124ec565b9050919050565b7f476f616c20726561636865640000000000000000000000000000000000000000600082015250565b6000612565600c83611ba8565b91506125708261252f565b602082019050919050565b6000602082019050818103600083015261259481612558565b9050919050565b7f416c726561647920726566756e64656400000000000000000000000000000000600082015250565b60006125d1601083611ba8565b91506125dc8261259b565b602082019050919050565b60006020820190508181036000830152612600816125c4565b9050919050565b7f4e6f20636f6e747269627574696f6e0000000000000000000000000000000000600082015250565b600061263d600f83611ba8565b915061264882612607565b602082019050919050565b6000602082019050818103600083015261266c81612630565b9050919050565b7f526566756e64206661696c656400000000000000000000000000000000000000600082015250565b60006126a9600d83611ba8565b91506126b482612673565b602082019050919050565b600060208201905081810360008301526126d88161269c565b9050919050565b7f496e76616c696420696e64657800000000000000000000000000000000000000600082015250565b6000612715600d83611ba8565b9150612720826126df565b602082019050919050565b6000602082019050818103600083015261274481612708565b905091905056fea2646970667358221220ff086ef0d5f7164ce1f4aca4771e9824c522a74b84dc3f8416cae82f6f6b3d0364736f6c63430008140033",
  "linkReferences": {},
  "deployedLinkReferences": {}
}